{
  "_format": "hh-sol-artifact-1",
  "contractName": "AgriLoanContract",
  "sourceName": "contracts/AgriLoan.sol",
  "abi": [
    {
      "anonymous": false,
      "inputs": [
        {
          "indexed": true,
          "internalType": "uint256",
          "name": "loanId",
          "type": "uint256"
        },
        {
          "indexed": false,
          "internalType": "uint256",
          "name": "amount",
          "type": "uint256"
        }
      ],
      "name": "FundsDisbursed",
      "type": "event"
    },
    {
      "anonymous": false,
      "inputs": [
        {
          "indexed": true,
          "internalType": "uint256",
          "name": "loanId",
          "type": "uint256"
        },
        {
          "indexed": true,
          "internalType": "address",
          "name": "farmer",
          "type": "address"
        },
        {
          "indexed": false,
          "internalType": "uint256",
          "name": "amount",
          "type": "uint256"
        }
      ],
      "name": "LoanApplied",
      "type": "event"
    },
    {
      "anonymous": false,
      "inputs": [
        {
          "indexed": true,
          "internalType": "uint256",
          "name": "loanId",
          "type": "uint256"
        }
      ],
      "name": "LoanApproved",
      "type": "event"
    },
    {
      "inputs": [
        {
          "internalType": "uint256",
          "name": "_amount",
          "type": "uint256"
        },
        {
          "internalType": "uint256",
          "name": "_duration",
          "type": "uint256"
        }
      ],
      "name": "applyForLoan",
      "outputs": [],
      "stateMutability": "nonpayable",
      "type": "function"
    },
    {
      "inputs": [
        {
          "internalType": "uint256",
          "name": "_loanId",
          "type": "uint256"
        }
      ],
      "name": "approveLoan",
      "outputs": [],
      "stateMutability": "nonpayable",
      "type": "function"
    },
    {
      "inputs": [],
      "name": "loanCount",
      "outputs": [
        {
          "internalType": "uint256",
          "name": "",
          "type": "uint256"
        }
      ],
      "stateMutability": "view",
      "type": "function"
    },
    {
      "inputs": [
        {
          "internalType": "uint256",
          "name": "",
          "type": "uint256"
        }
      ],
      "name": "loans",
      "outputs": [
        {
          "internalType": "uint256",
          "name": "id",
          "type": "uint256"
        },
        {
          "internalType": "address",
          "name": "farmer",
          "type": "address"
        },
        {
          "internalType": "uint256",
          "name": "amount",
          "type": "uint256"
        },
        {
          "internalType": "uint256",
          "name": "interestRate",
          "type": "uint256"
        },
        {
          "internalType": "uint256",
          "name": "duration",
          "type": "uint256"
        },
        {
          "internalType": "enum AgriLoanContract.ApplicationStatus",
          "name": "status",
          "type": "uint8"
        },
        {
          "internalType": "uint256",
          "name": "timestamp",
          "type": "uint256"
        }
      ],
      "stateMutability": "view",
      "type": "function"
    }
  ],
  "bytecode": "0x608060405234801561001057600080fd5b506106f8806100206000396000f3fe608060405234801561001057600080fd5b506004361061004c5760003560e01c8063aadc1ac114610051578063ce63094d1461006d578063d7bd993f1461008b578063e1ec3c68146100a7575b600080fd5b61006b60048036038101906100669190610410565b6100dd565b005b6100756101d4565b604051610082919061044c565b60405180910390f35b6100a560048036038101906100a09190610467565b6101da565b005b6100c160048036038101906100bc9190610410565b610366565b6040516100d4979695949392919061055f565b60405180910390f35b600060048111156100f1576100f06104e8565b5b60008083815260200190815260200160002060050160009054906101000a900460ff166004811115610126576101256104e8565b5b14610166576040517f08c379a000000000000000000000000000000000000000000000000000000000815260040161015d9061062b565b60405180910390fd5b600160008083815260200190815260200160002060050160006101000a81548160ff0219169083600481111561019f5761019e6104e8565b5b0217905550807f073e754af3e7d644af8000094f3c23bc20ef9c40cc057bffa060b0230adf00f460405160405180910390a250565b60015481565b600160008154809291906101ed9061067a565b91905055506040518060e0016040528060015481526020013373ffffffffffffffffffffffffffffffffffffffff1681526020018381526020016004815260200182815260200160006004811115610248576102476104e8565b5b81526020014281525060008060015481526020019081526020016000206000820151816000015560208201518160010160006101000a81548173ffffffffffffffffffffffffffffffffffffffff021916908373ffffffffffffffffffffffffffffffffffffffff16021790555060408201518160020155606082015181600301556080820151816004015560a08201518160050160006101000a81548160ff021916908360048111156102ff576102fe6104e8565b5b021790555060c082015181600601559050503373ffffffffffffffffffffffffffffffffffffffff166001547fd28c98a78d8dcf18387de306f90f8051cb9a858b6ba5d5a6c69aac74b955b0a08460405161035a919061044c565b60405180910390a35050565b60006020528060005260406000206000915090508060000154908060010160009054906101000a900473ffffffffffffffffffffffffffffffffffffffff16908060020154908060030154908060040154908060050160009054906101000a900460ff16908060060154905087565b600080fd5b6000819050919050565b6103ed816103da565b81146103f857600080fd5b50565b60008135905061040a816103e4565b92915050565b600060208284031215610426576104256103d5565b5b6000610434848285016103fb565b91505092915050565b610446816103da565b82525050565b6000602082019050610461600083018461043d565b92915050565b6000806040838503121561047e5761047d6103d5565b5b600061048c858286016103fb565b925050602061049d858286016103fb565b9150509250929050565b600073ffffffffffffffffffffffffffffffffffffffff82169050919050565b60006104d2826104a7565b9050919050565b6104e2816104c7565b82525050565b7f4e487b7100000000000000000000000000000000000000000000000000000000600052602160045260246000fd5b60058110610528576105276104e8565b5b50565b600081905061053982610517565b919050565b60006105498261052b565b9050919050565b6105598161053e565b82525050565b600060e082019050610574600083018a61043d565b61058160208301896104d9565b61058e604083018861043d565b61059b606083018761043d565b6105a8608083018661043d565b6105b560a0830185610550565b6105c260c083018461043d565b98975050505050505050565b600082825260208201905092915050565b7f4e6f7420696e2070656e64696e67207374617465000000000000000000000000600082015250565b60006106156014836105ce565b9150610620826105df565b602082019050919050565b6000602082019050818103600083015261064481610608565b9050919050565b7f4e487b7100000000000000000000000000000000000000000000000000000000600052601160045260246000fd5b6000610685826103da565b91507fffffffffffffffffffffffffffffffffffffffffffffffffffffffffffffffff82036106b7576106b661064b565b5b60018201905091905056fea2646970667358221220f01614df5b62ac09ba26e31c18ca0cb9c42a73ea535ea5a26b3f8292703eee6c64736f6c63430008130033",
  "linkReferences": {},
  "deployedLinkReferences": {}
}